{
  "_format": "hh-sol-artifact-1",
  "contractName": "LandRegistry",
  "sourceName": "contracts/LandRegistry.sol",
  "abi": [
    {
      "inputs": [],
      "stateMutability": "nonpayable",
      "type": "constructor"
    },
    {
      "anonymous": false,
      "inputs": [
        {
          "indexed": false,
          "internalType": "string",
          "name": "landId",
          "type": "string"
        },
        {
          "indexed": false,
          "internalType": "address",
          "name": "owner",
          "type": "address"
        }
      ],
      "name": "LandRegistered",
      "type": "event"
    },
    {
      "anonymous": false,
      "inputs": [
        {
          "indexed": false,
          "internalType": "string",
          "name": "landId",
          "type": "string"
        },
        {
          "indexed": false,
          "internalType": "address",
          "name": "from",
          "type": "address"
        },
        {
          "indexed": false,
          "internalType": "address",
          "name": "to",
          "type": "address"
        }
      ],
      "name": "OwnershipTransferred",
      "type": "event"
    },
    {
      "inputs": [],
      "name": "admin",
      "outputs": [
        {
          "internalType": "address",
          "name": "",
          "type": "address"
        }
      ],
      "stateMutability": "view",
      "type": "function"
    },
    {
      "inputs": [
        {
          "internalType": "string",
          "name": "landId",
          "type": "string"
        }
      ],
      "name": "getHistoryCount",
      "outputs": [
        {
          "internalType": "uint256",
          "name": "",
          "type": "uint256"
        }
      ],
      "stateMutability": "view",
      "type": "function"
    },
    {
      "inputs": [
        {
          "internalType": "string",
          "name": "landId",
          "type": "string"
        },
        {
          "internalType": "uint256",
          "name": "index",
          "type": "uint256"
        }
      ],
      "name": "getTransfer",
      "outputs": [
        {
          "internalType": "address",
          "name": "from",
          "type": "address"
        },
        {
          "internalType": "address",
          "name": "to",
          "type": "address"
        },
        {
          "internalType": "uint256",
          "name": "timestamp",
          "type": "uint256"
        }
      ],
      "stateMutability": "view",
      "type": "function"
    },
    {
      "inputs": [
        {
          "internalType": "bytes32",
          "name": "",
          "type": "bytes32"
        }
      ],
      "name": "hashExists",
      "outputs": [
        {
          "internalType": "bool",
          "name": "",
          "type": "bool"
        }
      ],
      "stateMutability": "view",
      "type": "function"
    },
    {
      "inputs": [
        {
          "internalType": "string",
          "name": "",
          "type": "string"
        },
        {
          "internalType": "uint256",
          "name": "",
          "type": "uint256"
        }
      ],
      "name": "history",
      "outputs": [
        {
          "internalType": "address",
          "name": "from",
          "type": "address"
        },
        {
          "internalType": "address",
          "name": "to",
          "type": "address"
        },
        {
          "internalType": "uint256",
          "name": "timestamp",
          "type": "uint256"
        }
      ],
      "stateMutability": "view",
      "type": "function"
    },
    {
      "inputs": [
        {
          "internalType": "string",
          "name": "",
          "type": "string"
        }
      ],
      "name": "lands",
      "outputs": [
        {
          "internalType": "string",
          "name": "landId",
          "type": "string"
        },
        {
          "internalType": "bytes32",
          "name": "titleHash",
          "type": "bytes32"
        },
        {
          "internalType": "address",
          "name": "owner",
          "type": "address"
        },
        {
          "internalType": "uint256",
          "name": "timestamp",
          "type": "uint256"
        },
        {
          "internalType": "bool",
          "name": "exists",
          "type": "bool"
        }
      ],
      "stateMutability": "view",
      "type": "function"
    },
    {
      "inputs": [
        {
          "internalType": "string",
          "name": "landId",
          "type": "string"
        },
        {
          "internalType": "bytes32",
          "name": "titleHash",
          "type": "bytes32"
        }
      ],
      "name": "registerLand",
      "outputs": [],
      "stateMutability": "nonpayable",
      "type": "function"
    },
    {
      "inputs": [
        {
          "internalType": "string",
          "name": "landId",
          "type": "string"
        },
        {
          "internalType": "address",
          "name": "newOwner",
          "type": "address"
        }
      ],
      "name": "transferOwnership",
      "outputs": [],
      "stateMutability": "nonpayable",
      "type": "function"
    },
    {
      "inputs": [
        {
          "internalType": "string",
          "name": "landId",
          "type": "string"
        },
        {
          "internalType": "bytes32",
          "name": "titleHash",
          "type": "bytes32"
        }
      ],
      "name": "verifyTitle",
      "outputs": [
        {
          "internalType": "bool",
          "name": "",
          "type": "bool"
        }
      ],
      "stateMutability": "view",
      "type": "function"
    }
  ],
  "bytecode": "0x608060405234801561001057600080fd5b50336000806101000a81548173ffffffffffffffffffffffffffffffffffffffff021916908373ffffffffffffffffffffffffffffffffffffffff160217905550611848806100606000396000f3fe608060405234801561001057600080fd5b50600436106100935760003560e01c8063b1c8ad0d11610066578063b1c8ad0d1461015c578063b535b5c314610190578063b8322227146101c0578063c0e793c2146101dc578063f851a440146101f857610093565b80631617f59f1461009857806359aa80b8146100c8578063705f818d146100fa578063978080581461012a575b600080fd5b6100b260048036038101906100ad9190610e2b565b610216565b6040516100bf9190610e8d565b60405180910390f35b6100e260048036038101906100dd9190610ed4565b610241565b6040516100f193929190610f71565b60405180910390f35b610114600480360381019061010f9190610fde565b610365565b6040516101219190611055565b60405180910390f35b610144600480360381019061013f9190610ed4565b610401565b60405161015393929190610f71565b60405180910390f35b61017660048036038101906101719190610e2b565b61049e565b6040516101879594939291906110fe565b60405180910390f35b6101aa60048036038101906101a59190611158565b61059f565b6040516101b79190611055565b60405180910390f35b6101da60048036038101906101d59190610fde565b6105bf565b005b6101f660048036038101906101f191906111b1565b610913565b005b610200610cad565b60405161020d919061120d565b60405180910390f35b60006002826040516102289190611264565b9081526020016040518091039020805490509050919050565b6000806000806002866040516102579190611264565b908152602001604051809103902085815481106102775761027661127b565b5b90600052602060002090600302016040518060600160405290816000820160009054906101000a900473ffffffffffffffffffffffffffffffffffffffff1673ffffffffffffffffffffffffffffffffffffffff1673ffffffffffffffffffffffffffffffffffffffff1681526020016001820160009054906101000a900473ffffffffffffffffffffffffffffffffffffffff1673ffffffffffffffffffffffffffffffffffffffff1673ffffffffffffffffffffffffffffffffffffffff1681526020016002820154815250509050806000015181602001518260400151935093509350509250925092565b60006001836040516103779190611264565b908152602001604051809103902060040160009054906101000a900460ff166103d5576040517f08c379a00000000000000000000000000000000000000000000000000000000081526004016103cc906112f6565b60405180910390fd5b816001846040516103e69190611264565b90815260200160405180910390206001015414905092915050565b600282805160208101820180518482526020830160208501208183528095505050505050818154811061043357600080fd5b9060005260206000209060030201600091509150508060000160009054906101000a900473ffffffffffffffffffffffffffffffffffffffff16908060010160009054906101000a900473ffffffffffffffffffffffffffffffffffffffff16908060020154905083565b6001818051602081018201805184825260208301602085012081835280955050505050506000915090508060000180546104d790611345565b80601f016020809104026020016040519081016040528092919081815260200182805461050390611345565b80156105505780601f1061052557610100808354040283529160200191610550565b820191906000526020600020905b81548152906001019060200180831161053357829003601f168201915b5050505050908060010154908060020160009054906101000a900473ffffffffffffffffffffffffffffffffffffffff16908060030154908060040160009054906101000a900460ff16905085565b60036020528060005260406000206000915054906101000a900460ff1681565b6001826040516105cf9190611264565b908152602001604051809103902060040160009054906101000a900460ff161561062e576040517f08c379a0000000000000000000000000000000000000000000000000000000008152600401610625906113c2565b60405180910390fd5b6003600082815260200190815260200160002060009054906101000a900460ff161561068f576040517f08c379a00000000000000000000000000000000000000000000000000000000081526004016106869061142e565b60405180910390fd5b6040518060a001604052808381526020018281526020013373ffffffffffffffffffffffffffffffffffffffff168152602001428152602001600115158152506001836040516106df9190611264565b9081526020016040518091039020600082015181600001908161070291906115fa565b506020820151816001015560408201518160020160006101000a81548173ffffffffffffffffffffffffffffffffffffffff021916908373ffffffffffffffffffffffffffffffffffffffff1602179055506060820151816003015560808201518160040160006101000a81548160ff02191690831515021790555090505060016003600083815260200190815260200160002060006101000a81548160ff0219169083151502179055506002826040516107bd9190611264565b90815260200160405180910390206040518060600160405280600073ffffffffffffffffffffffffffffffffffffffff1681526020013373ffffffffffffffffffffffffffffffffffffffff16815260200142815250908060018154018082558091505060019003906000526020600020906003020160009091909190915060008201518160000160006101000a81548173ffffffffffffffffffffffffffffffffffffffff021916908373ffffffffffffffffffffffffffffffffffffffff16021790555060208201518160010160006101000a81548173ffffffffffffffffffffffffffffffffffffffff021916908373ffffffffffffffffffffffffffffffffffffffff1602179055506040820151816002015550507fdd0e63f6751705ba654d312cdb2d91e5c1ec84dcdec07b109b3d2d7a6cde75dd82336040516109079291906116cc565b60405180910390a15050565b6001826040516109239190611264565b908152602001604051809103902060040160009054906101000a900460ff16610981576040517f08c379a0000000000000000000000000000000000000000000000000000000008152600401610978906112f6565b60405180910390fd5b3373ffffffffffffffffffffffffffffffffffffffff166001836040516109a89190611264565b908152602001604051809103902060020160009054906101000a900473ffffffffffffffffffffffffffffffffffffffff1673ffffffffffffffffffffffffffffffffffffffff1614610a30576040517f08c379a0000000000000000000000000000000000000000000000000000000008152600401610a2790611748565b60405180910390fd5b600073ffffffffffffffffffffffffffffffffffffffff168173ffffffffffffffffffffffffffffffffffffffff1603610a9f576040517f08c379a0000000000000000000000000000000000000000000000000000000008152600401610a96906117b4565b60405180910390fd5b6000600183604051610ab19190611264565b908152602001604051809103902060020160009054906101000a900473ffffffffffffffffffffffffffffffffffffffff16905081600184604051610af69190611264565b908152602001604051809103902060020160006101000a81548173ffffffffffffffffffffffffffffffffffffffff021916908373ffffffffffffffffffffffffffffffffffffffff160217905550600283604051610b559190611264565b908152602001604051809103902060405180606001604052808373ffffffffffffffffffffffffffffffffffffffff1681526020018473ffffffffffffffffffffffffffffffffffffffff16815260200142815250908060018154018082558091505060019003906000526020600020906003020160009091909190915060008201518160000160006101000a81548173ffffffffffffffffffffffffffffffffffffffff021916908373ffffffffffffffffffffffffffffffffffffffff16021790555060208201518160010160006101000a81548173ffffffffffffffffffffffffffffffffffffffff021916908373ffffffffffffffffffffffffffffffffffffffff1602179055506040820151816002015550507f6840904f5b31827f74e1497360da245f56e530c8c3de3163a2d31f11493273c6838284604051610ca0939291906117d4565b60405180910390a1505050565b60008054906101000a900473ffffffffffffffffffffffffffffffffffffffff1681565b6000604051905090565b600080fd5b600080fd5b600080fd5b600080fd5b6000601f19601f8301169050919050565b7f4e487b7100000000000000000000000000000000000000000000000000000000600052604160045260246000fd5b610d3882610cef565b810181811067ffffffffffffffff82111715610d5757610d56610d00565b5b80604052505050565b6000610d6a610cd1565b9050610d768282610d2f565b919050565b600067ffffffffffffffff821115610d9657610d95610d00565b5b610d9f82610cef565b9050602081019050919050565b82818337600083830152505050565b6000610dce610dc984610d7b565b610d60565b905082815260208101848484011115610dea57610de9610cea565b5b610df5848285610dac565b509392505050565b600082601f830112610e1257610e11610ce5565b5b8135610e22848260208601610dbb565b91505092915050565b600060208284031215610e4157610e40610cdb565b5b600082013567ffffffffffffffff811115610e5f57610e5e610ce0565b5b610e6b84828501610dfd565b91505092915050565b6000819050919050565b610e8781610e74565b82525050565b6000602082019050610ea26000830184610e7e565b92915050565b610eb181610e74565b8114610ebc57600080fd5b50565b600081359050610ece81610ea8565b92915050565b60008060408385031215610eeb57610eea610cdb565b5b600083013567ffffffffffffffff811115610f0957610f08610ce0565b5b610f1585828601610dfd565b9250506020610f2685828601610ebf565b9150509250929050565b600073ffffffffffffffffffffffffffffffffffffffff82169050919050565b6000610f5b82610f30565b9050919050565b610f6b81610f50565b82525050565b6000606082019050610f866000830186610f62565b610f936020830185610f62565b610fa06040830184610e7e565b949350505050565b6000819050919050565b610fbb81610fa8565b8114610fc657600080fd5b50565b600081359050610fd881610fb2565b92915050565b60008060408385031215610ff557610ff4610cdb565b5b600083013567ffffffffffffffff81111561101357611012610ce0565b5b61101f85828601610dfd565b925050602061103085828601610fc9565b9150509250929050565b60008115159050919050565b61104f8161103a565b82525050565b600060208201905061106a6000830184611046565b92915050565b600081519050919050565b600082825260208201905092915050565b60005b838110156110aa57808201518184015260208101905061108f565b60008484015250505050565b60006110c182611070565b6110cb818561107b565b93506110db81856020860161108c565b6110e481610cef565b840191505092915050565b6110f881610fa8565b82525050565b600060a082019050818103600083015261111881886110b6565b905061112760208301876110ef565b6111346040830186610f62565b6111416060830185610e7e565b61114e6080830184611046565b9695505050505050565b60006020828403121561116e5761116d610cdb565b5b600061117c84828501610fc9565b91505092915050565b61118e81610f50565b811461119957600080fd5b50565b6000813590506111ab81611185565b92915050565b600080604083850312156111c8576111c7610cdb565b5b600083013567ffffffffffffffff8111156111e6576111e5610ce0565b5b6111f285828601610dfd565b92505060206112038582860161119c565b9150509250929050565b60006020820190506112226000830184610f62565b92915050565b600081905092915050565b600061123e82611070565b6112488185611228565b935061125881856020860161108c565b80840191505092915050565b60006112708284611233565b915081905092915050565b7f4e487b7100000000000000000000000000000000000000000000000000000000600052603260045260246000fd5b7f4c616e64206e6f7420666f756e64000000000000000000000000000000000000600082015250565b60006112e0600e8361107b565b91506112eb826112aa565b602082019050919050565b6000602082019050818103600083015261130f816112d3565b9050919050565b7f4e487b7100000000000000000000000000000000000000000000000000000000600052602260045260246000fd5b6000600282049050600182168061135d57607f821691505b6020821081036113705761136f611316565b5b50919050565b7f4c616e6420616c72656164792072656769737465726564000000000000000000600082015250565b60006113ac60178361107b565b91506113b782611376565b602082019050919050565b600060208201905081810360008301526113db8161139f565b9050919050565b7f4475706c696361746520646f63756d656e742068617368000000000000000000600082015250565b600061141860178361107b565b9150611423826113e2565b602082019050919050565b600060208201905081810360008301526114478161140b565b9050919050565b60008190508160005260206000209050919050565b60006020601f8301049050919050565b600082821b905092915050565b6000600883026114b07fffffffffffffffffffffffffffffffffffffffffffffffffffffffffffffffff82611473565b6114ba8683611473565b95508019841693508086168417925050509392505050565b6000819050919050565b60006114f76114f26114ed84610e74565b6114d2565b610e74565b9050919050565b6000819050919050565b611511836114dc565b61152561151d826114fe565b848454611480565b825550505050565b600090565b61153a61152d565b611545818484611508565b505050565b5b818110156115695761155e600082611532565b60018101905061154b565b5050565b601f8211156115ae5761157f8161144e565b61158884611463565b81016020851015611597578190505b6115ab6115a385611463565b83018261154a565b50505b505050565b600082821c905092915050565b60006115d1600019846008026115b3565b1980831691505092915050565b60006115ea83836115c0565b9150826002028217905092915050565b61160382611070565b67ffffffffffffffff81111561161c5761161b610d00565b5b6116268254611345565b61163182828561156d565b600060209050601f8311600181146116645760008415611652578287015190505b61165c85826115de565b8655506116c4565b601f1984166116728661144e565b60005b8281101561169a57848901518255600182019150602085019450602081019050611675565b868310156116b757848901516116b3601f8916826115c0565b8355505b6001600288020188555050505b505050505050565b600060408201905081810360008301526116e681856110b6565b90506116f56020830184610f62565b9392505050565b7f4e6f7420746865206f776e657200000000000000000000000000000000000000600082015250565b6000611732600d8361107b565b915061173d826116fc565b602082019050919050565b6000602082019050818103600083015261176181611725565b9050919050565b7f496e76616c696420616464726573730000000000000000000000000000000000600082015250565b600061179e600f8361107b565b91506117a982611768565b602082019050919050565b600060208201905081810360008301526117cd81611791565b9050919050565b600060608201905081810360008301526117ee81866110b6565b90506117fd6020830185610f62565b61180a6040830184610f62565b94935050505056fea2646970667358221220b6da891e85f2c38ec3e09668d7b91e5fb2fec6b8d12bd93af88806d73083221464736f6c63430008130033",
  "linkReferences": {},
  "deployedLinkReferences": {}
}